{
  "contractName": "VendingMachine",
  "abi": [
    {
      "inputs": [],
      "payable": false,
      "stateMutability": "nonpayable",
      "type": "constructor"
    },
    {
      "anonymous": false,
      "inputs": [
        {
          "indexed": false,
          "internalType": "address",
          "name": "_to",
          "type": "address"
        },
        {
          "indexed": false,
          "internalType": "uint256",
          "name": "_amount",
          "type": "uint256"
        }
      ],
      "name": "Purchased",
      "type": "event"
    },
    {
      "anonymous": false,
      "inputs": [
        {
          "indexed": false,
          "internalType": "uint256",
          "name": "_lastUnit",
          "type": "uint256"
        },
        {
          "indexed": false,
          "internalType": "uint256",
          "name": "_maxUnit",
          "type": "uint256"
        },
        {
          "indexed": false,
          "internalType": "uint256",
          "name": "_totalStock",
          "type": "uint256"
        }
      ],
      "name": "StockUP",
      "type": "event"
    },
    {
      "constant": true,
      "inputs": [],
      "name": "_owner",
      "outputs": [
        {
          "internalType": "address",
          "name": "",
          "type": "address"
        }
      ],
      "payable": false,
      "stateMutability": "view",
      "type": "function"
    },
    {
      "constant": true,
      "inputs": [
        {
          "internalType": "uint256",
          "name": "",
          "type": "uint256"
        }
      ],
      "name": "_products",
      "outputs": [
        {
          "internalType": "string",
          "name": "_category",
          "type": "string"
        },
        {
          "components": [
            {
              "internalType": "string",
              "name": "_itemName",
              "type": "string"
            },
            {
              "internalType": "string",
              "name": "_price",
              "type": "string"
            },
            {
              "internalType": "uint256",
              "name": "_unit",
              "type": "uint256"
            }
          ],
          "internalType": "struct VendingMachine.ProductDetails",
          "name": "_prdDetails",
          "type": "tuple"
        }
      ],
      "payable": false,
      "stateMutability": "view",
      "type": "function"
    },
    {
      "constant": false,
      "inputs": [
        {
          "internalType": "uint256",
          "name": "_maxUnit",
          "type": "uint256"
        }
      ],
      "name": "stockUp",
      "outputs": [],
      "payable": false,
      "stateMutability": "nonpayable",
      "type": "function"
    },
    {
      "constant": true,
      "inputs": [],
      "name": "getProduts",
      "outputs": [
        {
          "components": [
            {
              "internalType": "string",
              "name": "_category",
              "type": "string"
            },
            {
              "components": [
                {
                  "internalType": "string",
                  "name": "_itemName",
                  "type": "string"
                },
                {
                  "internalType": "string",
                  "name": "_price",
                  "type": "string"
                },
                {
                  "internalType": "uint256",
                  "name": "_unit",
                  "type": "uint256"
                }
              ],
              "internalType": "struct VendingMachine.ProductDetails",
              "name": "_prdDetails",
              "type": "tuple"
            }
          ],
          "internalType": "struct VendingMachine.Product[]",
          "name": "",
          "type": "tuple[]"
        }
      ],
      "payable": false,
      "stateMutability": "view",
      "type": "function"
    },
    {
      "constant": false,
      "inputs": [
        {
          "internalType": "uint256",
          "name": "_parentIndex",
          "type": "uint256"
        },
        {
          "internalType": "uint256",
          "name": "_amount",
          "type": "uint256"
        }
      ],
      "name": "purchaseItem",
      "outputs": [],
      "payable": false,
      "stateMutability": "nonpayable",
      "type": "function"
    },
    {
      "constant": true,
      "inputs": [],
      "name": "getVmBalance",
      "outputs": [
        {
          "internalType": "uint256",
          "name": "",
          "type": "uint256"
        }
      ],
      "payable": false,
      "stateMutability": "view",
      "type": "function"
    },
    {
      "constant": true,
      "inputs": [],
      "name": "getProductCount",
      "outputs": [
        {
          "internalType": "uint256",
          "name": "",
          "type": "uint256"
        }
      ],
      "payable": false,
      "stateMutability": "view",
      "type": "function"
    },
    {
      "constant": true,
      "inputs": [],
      "name": "getMasterProducts",
      "outputs": [
        {
          "internalType": "string[]",
          "name": "",
          "type": "string[]"
        }
      ],
      "payable": false,
      "stateMutability": "view",
      "type": "function"
    }
  ],
  "bytecode": "0x60806040523480156200001157600080fd5b5033600160006101000a81548173ffffffffffffffffffffffffffffffffffffffff021916908373ffffffffffffffffffffffffffffffffffffffff16021790555062000063620000ad60201b60201c565b60646000803373ffffffffffffffffffffffffffffffffffffffff1673ffffffffffffffffffffffffffffffffffffffff168152602001908152602001600020819055506200136b565b600360405180606001604052806040518060400160405280600581526020017f4472696e6b00000000000000000000000000000000000000000000000000000081525081526020016040518060400160405280600681526020017f537072697465000000000000000000000000000000000000000000000000000081525081526020016040518060400160405280600281526020017f353000000000000000000000000000000000000000000000000000000000000081525081525090806001815401808255809150509060018203906000526020600020906003020160009091929091909150906003620001a4929190620011a2565b5050600360405180606001604052806040518060400160405280600581526020017f4472696e6b00000000000000000000000000000000000000000000000000000081525081526020016040518060400160405280600581526020017f46616e746100000000000000000000000000000000000000000000000000000081525081526020016040518060400160405280600281526020017f3530000000000000000000000000000000000000000000000000000000000000815250815250908060018154018082558091505090600182039060005260206000209060030201600090919290919091509060036200029d929190620011a2565b5050600360405180606001604052806040518060400160405280600581526020017f4472696e6b00000000000000000000000000000000000000000000000000000081525081526020016040518060400160405280600381526020017f375570000000000000000000000000000000000000000000000000000000000081525081526020016040518060400160405280600281526020017f35300000000000000000000000000000000000000000000000000000000000008152508152509080600181540180825580915050906001820390600052602060002090600302016000909192909190915090600362000396929190620011a2565b5050600360405180606001604052806040518060400160405280600581526020017f4472696e6b00000000000000000000000000000000000000000000000000000081525081526020016040518060400160405280600681526020017f456e65726779000000000000000000000000000000000000000000000000000081525081526020016040518060400160405280600281526020017f3530000000000000000000000000000000000000000000000000000000000000815250815250908060018154018082558091505090600182039060005260206000209060030201600090919290919091509060036200048f929190620011a2565b5050600360405180606001604052806040518060400160405280600581526020017f436869707300000000000000000000000000000000000000000000000000000081525081526020016040518060400160405280600481526020017f4c6179730000000000000000000000000000000000000000000000000000000081525081526020016040518060400160405280600281526020017f32300000000000000000000000000000000000000000000000000000000000008152508152509080600181540180825580915050906001820390600052602060002090600302016000909192909190915090600362000588929190620011a2565b5050600360405180606001604052806040518060400160405280600581526020017f436869707300000000000000000000000000000000000000000000000000000081525081526020016040518060400160405280600781526020017f446f7269746f730000000000000000000000000000000000000000000000000081525081526020016040518060400160405280600281526020017f32300000000000000000000000000000000000000000000000000000000000008152508152509080600181540180825580915050906001820390600052602060002090600302016000909192909190915090600362000681929190620011a2565b5050600360405180606001604052806040518060400160405280600581526020017f436869707300000000000000000000000000000000000000000000000000000081525081526020016040518060400160405280600581526020017f436869707300000000000000000000000000000000000000000000000000000081525081526020016040518060400160405280600281526020017f3230000000000000000000000000000000000000000000000000000000000000815250815250908060018154018082558091505090600182039060005260206000209060030201600090919290919091509060036200077a929190620011a2565b5050600360405180606001604052806040518060400160405280600581526020017f436869707300000000000000000000000000000000000000000000000000000081525081526020016040518060400160405280600581526020017f42696e676f00000000000000000000000000000000000000000000000000000081525081526020016040518060400160405280600281526020017f32300000000000000000000000000000000000000000000000000000000000008152508152509080600181540180825580915050906001820390600052602060002090600302016000909192909190915090600362000873929190620011a2565b5050600360405180606001604052806040518060400160405280600981526020017f43686f636f6c617465000000000000000000000000000000000000000000000081525081526020016040518060400160405280600681526020017f4b69744b6174000000000000000000000000000000000000000000000000000081525081526020016040518060400160405280600281526020017f3230000000000000000000000000000000000000000000000000000000000000815250815250908060018154018082558091505090600182039060005260206000209060030201600090919290919091509060036200096c929190620011a2565b5050600360405180606001604052806040518060400160405280600981526020017f43686f636f6c617465000000000000000000000000000000000000000000000081525081526020016040518060400160405280600481526020017f416d756c0000000000000000000000000000000000000000000000000000000081525081526020016040518060400160405280600281526020017f35300000000000000000000000000000000000000000000000000000000000008152508152509080600181540180825580915050906001820390600052602060002090600302016000909192909190915090600362000a65929190620011a2565b5050600360405180606001604052806040518060400160405280600981526020017f43686f636f6c617465000000000000000000000000000000000000000000000081525081526020016040518060400160405280600481526020017f4d6172730000000000000000000000000000000000000000000000000000000081525081526020016040518060400160405280600281526020017f35300000000000000000000000000000000000000000000000000000000000008152508152509080600181540180825580915050906001820390600052602060002090600302016000909192909190915090600362000b5e929190620011a2565b5050600360405180606001604052806040518060400160405280600981526020017f43686f636f6c617465000000000000000000000000000000000000000000000081525081526020016040518060400160405280600481526020017f5065726b0000000000000000000000000000000000000000000000000000000081525081526020016040518060400160405280600281526020017f35300000000000000000000000000000000000000000000000000000000000008152508152509080600181540180825580915050906001820390600052602060002090600302016000909192909190915090600362000c57929190620011a2565b5050600360405180606001604052806040518060400160405280600781526020017f4e6f6f646c65730000000000000000000000000000000000000000000000000081525081526020016040518060400160405280600581526020017f4d6167676900000000000000000000000000000000000000000000000000000081525081526020016040518060400160405280600281526020017f35300000000000000000000000000000000000000000000000000000000000008152508152509080600181540180825580915050906001820390600052602060002090600302016000909192909190915090600362000d50929190620011a2565b5050600360405180606001604052806040518060400160405280600781526020017f4e6f6f646c65730000000000000000000000000000000000000000000000000081525081526020016040518060400160405280600481526020017f596570690000000000000000000000000000000000000000000000000000000081525081526020016040518060400160405280600281526020017f35300000000000000000000000000000000000000000000000000000000000008152508152509080600181540180825580915050906001820390600052602060002090600302016000909192909190915090600362000e49929190620011a2565b505060008090505b6003805490508110156200119f5762000e69620011fc565b60405180604001604052806003848154811062000e8257fe5b906000526020600020906003020160006003811062000e9d57fe5b018054600181600116156101000203166002900480601f01602080910402602001604051908101604052809291908181526020018280546001816001161561010002031660029004801562000f365780601f1062000f0a5761010080835404028352916020019162000f36565b820191906000526020600020905b81548152906001019060200180831162000f1857829003601f168201915b5050505050815260200160405180606001604052806003868154811062000f5957fe5b906000526020600020906003020160016003811062000f7457fe5b018054600181600116156101000203166002900480601f0160208091040260200160405190810160405280929190818152602001828054600181600116156101000203166002900480156200100d5780601f1062000fe1576101008083540402835291602001916200100d565b820191906000526020600020905b81548152906001019060200180831162000fef57829003601f168201915b50505050508152602001600386815481106200102557fe5b90600052602060002090600302016002600381106200104057fe5b018054600181600116156101000203166002900480601f016020809104026020016040519081016040528092919081815260200182805460018160011615610100020316600290048015620010d95780601f10620010ad57610100808354040283529160200191620010d9565b820191906000526020600020905b815481529060010190602001808311620010bb57829003601f168201915b5050505050815260200160648152508152509050600281908060018154018082558091505090600182039060005260206000209060040201600090919290919091506000820151816000019080519060200190620011399291906200121e565b506020820151816001016000820151816000019080519060200190620011619291906200121e565b506020820151816001019080519060200190620011809291906200121e565b5060408201518160020155505050505050808060010191505062000e51565b50565b8260038101928215620011e9579160200282015b82811115620011e8578251829080519060200190620011d79291906200121e565b5091602001919060010190620011b6565b5b509050620011f89190620012a5565b5090565b60405180604001604052806060815260200162001218620012d6565b81525090565b828054600181600116156101000203166002900490600052602060002090601f016020900481019282601f106200126157805160ff191683800117855562001292565b8280016001018555821562001292579182015b828111156200129157825182559160200191906001019062001274565b5b509050620012a19190620012f7565b5090565b620012d391905b80821115620012cf5760008181620012c591906200131f565b50600101620012ac565b5090565b90565b60405180606001604052806060815260200160608152602001600081525090565b6200131c91905b8082111562001318576000816000905550600101620012fe565b5090565b90565b50805460018160011615610100020316600290046000825580601f1062001347575062001368565b601f016020900490600052602060002090810190620013679190620012f7565b5b50565b610f52806200137b6000396000f3fe608060405234801561001057600080fd5b50600436106100885760003560e01c80639be164d31161005b5780639be164d314610103578063b2bdfa7b14610134578063bdcc847e14610152578063e06756981461017057610088565b80631318858f1461008d5780634a348da9146100ab5780635db6cc22146100c9578063660b2ff7146100e7575b600080fd5b61009561018c565b6040516100a29190610d45565b60405180910390f35b6100b36103ef565b6040516100c09190610dbe565b60405180910390f35b6100d16103fc565b6040516100de9190610dbe565b60405180910390f35b61010160048036036100fc9190810190610997565b610464565b005b61011d60048036036101189190810190610997565b61054d565b60405161012b929190610d67565b60405180910390f35b61013c61076e565b6040516101499190610cdf565b60405180910390f35b61015a610794565b6040516101679190610d23565b60405180910390f35b61018a600480360361018591908101906109c0565b61087d565b005b60606002805480602002602001604051908101604052809291908181526020016000905b828210156103e65783829060005260206000209060040201604051806040016040529081600082018054600181600116156101000203166002900480601f01602080910402602001604051908101604052809291908181526020018280546001816001161561010002031660029004801561026c5780601f106102415761010080835404028352916020019161026c565b820191906000526020600020905b81548152906001019060200180831161024f57829003601f168201915b5050505050815260200160018201604051806060016040529081600082018054600181600116156101000203166002900480601f01602080910402602001604051908101604052809291908181526020018280546001816001161561010002031660029004801561031e5780601f106102f35761010080835404028352916020019161031e565b820191906000526020600020905b81548152906001019060200180831161030157829003601f168201915b50505050508152602001600182018054600181600116156101000203166002900480601f0160208091040260200160405190810160405280929190818152602001828054600181600116156101000203166002900480156103c05780601f10610395576101008083540402835291602001916103c0565b820191906000526020600020905b8154815290600101906020018083116103a357829003601f168201915b5050505050815260200160028201548152505081525050815260200190600101906101b0565b50505050905090565b6000600280549050905090565b6000806000600160009054906101000a900473ffffffffffffffffffffffffffffffffffffffff1673ffffffffffffffffffffffffffffffffffffffff1673ffffffffffffffffffffffffffffffffffffffff16815260200190815260200160002054905090565b600160009054906101000a900473ffffffffffffffffffffffffffffffffffffffff1673ffffffffffffffffffffffffffffffffffffffff163373ffffffffffffffffffffffffffffffffffffffff16146104f4576040517f08c379a00000000000000000000000000000000000000000000000000000000081526004016104eb90610d9e565b60405180910390fd5b60006002905060008090505b600280549050811015610548578282828154811061051a57fe5b9060005260206000209060040201600101600201600082825401925050819055508080600101915050610500565b505050565b6002818154811061055a57fe5b9060005260206000209060040201600091509050806000018054600181600116156101000203166002900480601f0160208091040260200160405190810160405280929190818152602001828054600181600116156101000203166002900480156106065780601f106105db57610100808354040283529160200191610606565b820191906000526020600020905b8154815290600101906020018083116105e957829003601f168201915b50505050509080600101604051806060016040529081600082018054600181600116156101000203166002900480601f0160208091040260200160405190810160405280929190818152602001828054600181600116156101000203166002900480156106b45780601f10610689576101008083540402835291602001916106b4565b820191906000526020600020905b81548152906001019060200180831161069757829003601f168201915b50505050508152602001600182018054600181600116156101000203166002900480601f0160208091040260200160405190810160405280929190818152602001828054600181600116156101000203166002900480156107565780601f1061072b57610100808354040283529160200191610756565b820191906000526020600020905b81548152906001019060200180831161073957829003601f168201915b50505050508152602001600282015481525050905082565b600160009054906101000a900473ffffffffffffffffffffffffffffffffffffffff1681565b60606004805480602002602001604051908101604052809291908181526020016000905b82821015610874578382906000526020600020018054600181600116156101000203166002900480601f0160208091040260200160405190810160405280929190818152602001828054600181600116156101000203166002900480156108605780601f1061083557610100808354040283529160200191610860565b820191906000526020600020905b81548152906001019060200180831161084357829003601f168201915b5050505050815260200190600101906107b8565b50505050905090565b60006002905080838154811061088f57fe5b9060005260206000209060040201600101600201600081548092919060019003919050555081600080600160009054906101000a900473ffffffffffffffffffffffffffffffffffffffff1673ffffffffffffffffffffffffffffffffffffffff1673ffffffffffffffffffffffffffffffffffffffff168152602001908152602001600020600082825401925050819055507fa512fb2532ca8587f236380171326ebb69670e86a2ba0c4412a3fcca4c3ada9b600160009054906101000a900473ffffffffffffffffffffffffffffffffffffffff1683604051610975929190610cfa565b60405180910390a1505050565b60008135905061099181610ef8565b92915050565b6000602082840312156109a957600080fd5b60006109b784828501610982565b91505092915050565b600080604083850312156109d357600080fd5b60006109e185828601610982565b92505060206109f285828601610982565b9150509250929050565b6000610a088383610b1d565b905092915050565b6000610a1c8383610c7d565b905092915050565b610a2d81610e78565b82525050565b6000610a3e82610df9565b610a488185610e34565b935083602082028501610a5a85610dd9565b8060005b85811015610a965784840389528151610a7785826109fc565b9450610a8283610e1a565b925060208a01995050600181019050610a5e565b50829750879550505050505092915050565b6000610ab382610e04565b610abd8185610e45565b935083602082028501610acf85610de9565b8060005b85811015610b0b5784840389528151610aec8582610a10565b9450610af783610e27565b925060208a01995050600181019050610ad3565b50829750879550505050505092915050565b6000610b2882610e0f565b610b328185610e56565b9350610b42818560208601610eb4565b610b4b81610ee7565b840191505092915050565b6000610b6182610e0f565b610b6b8185610e67565b9350610b7b818560208601610eb4565b610b8481610ee7565b840191505092915050565b6000610b9c601283610e67565b91507f416363657373204e6f7420416c6c6f77656400000000000000000000000000006000830152602082019050919050565b60006060830160008301518482036000860152610bec8282610b1d565b91505060208301518482036020860152610c068282610b1d565b9150506040830151610c1b6040860182610cc1565b508091505092915050565b60006060830160008301518482036000860152610c438282610b1d565b91505060208301518482036020860152610c5d8282610b1d565b9150506040830151610c726040860182610cc1565b508091505092915050565b60006040830160008301518482036000860152610c9a8282610b1d565b91505060208301518482036020860152610cb48282610bcf565b9150508091505092915050565b610cca81610eaa565b82525050565b610cd981610eaa565b82525050565b6000602082019050610cf46000830184610a24565b92915050565b6000604082019050610d0f6000830185610a24565b610d1c6020830184610cd0565b9392505050565b60006020820190508181036000830152610d3d8184610a33565b905092915050565b60006020820190508181036000830152610d5f8184610aa8565b905092915050565b60006040820190508181036000830152610d818185610b56565b90508181036020830152610d958184610c26565b90509392505050565b60006020820190508181036000830152610db781610b8f565b9050919050565b6000602082019050610dd36000830184610cd0565b92915050565b6000819050602082019050919050565b6000819050602082019050919050565b600081519050919050565b600081519050919050565b600081519050919050565b6000602082019050919050565b6000602082019050919050565b600082825260208201905092915050565b600082825260208201905092915050565b600082825260208201905092915050565b600082825260208201905092915050565b6000610e8382610e8a565b9050919050565b600073ffffffffffffffffffffffffffffffffffffffff82169050919050565b6000819050919050565b60005b83811015610ed2578082015181840152602081019050610eb7565b83811115610ee1576000848401525b50505050565b6000601f19601f8301169050919050565b610f0181610eaa565b8114610f0c57600080fd5b5056fea365627a7a7231582034ed0894bbeefeab2d089ff3b8c4690a81996d2bb5dc9dd8bb5b9c3789f476466c6578706572696d656e74616cf564736f6c63430005100040",
  "source": "// SPDX-License-Identifier: GPL-3.0\n\npragma solidity >=0.4.22 <0.9.0;\npragma experimental ABIEncoderV2;\n\ncontract VendingMachine {\n\n    // struct config\n    struct ProductDetails {\n        string _itemName;\n        string _price;\n        uint _unit;\n    }\n    struct Product {\n        string _category;\n        ProductDetails _prdDetails;\n    }\n\n\n    // Events\n    event Purchased(address _to, uint _amount);\n    event StockUP(uint _lastUnit, uint _maxUnit, uint _totalStock);\n\n    \n    //\n    mapping(address=>uint) _vmBalance;\n    address  public _owner;\n    Product[] public _products;\n    string[3][] _productListStech;\n    string[] _masterProducts;\n  \n\n    function defaultStockUp() private {\n    _productListStech.push([\"Drink\",\"Sprite\",\"50\"]);\n    _productListStech.push([\"Drink\",\"Fanta\",\"50\"]);\n    _productListStech.push([\"Drink\",\"7Up\",\"50\"]);\n    _productListStech.push([\"Drink\",\"Energy\",\"50\"]);\n    _productListStech.push([\"Chips\",\"Lays\",\"20\"]);\n    _productListStech.push([\"Chips\",\"Doritos\",\"20\"]);\n    _productListStech.push([\"Chips\",\"Chips\",\"20\"]);\n    _productListStech.push([\"Chips\",\"Bingo\",\"20\"]);\n    _productListStech.push([\"Chocolate\",\"KitKat\",\"20\"]);\n    _productListStech.push([\"Chocolate\",\"Amul\",\"50\"]);\n    _productListStech.push([\"Chocolate\",\"Mars\",\"50\"]);\n    _productListStech.push([\"Chocolate\",\"Perk\",\"50\"]);\n    _productListStech.push([\"Noodles\",\"Maggi\",\"50\"]);\n    _productListStech.push([\"Noodles\",\"Yepi\",\"50\"]);\n\n        for(uint i = 0 ; i < _productListStech.length; i++ ){\n            Product memory pro = Product(\n                {\n                    _category:_productListStech[i][0],\n                    _prdDetails:ProductDetails(\n                        _productListStech[i][1],\n                        _productListStech[i][2],\n                        100\n                    )}\n                );\n            _products.push(pro);\n        }\n    }\n\n    modifier checkOwner() {\n        require(msg.sender == _owner,\"Access Not Allowed\");\n        _;\n    }\n\n    // add _maxUnit in all the products\n    function stockUp(uint _maxUnit)  public checkOwner   {\n         Product[] storage pod = _products;\n        for(uint i = 0 ; i < _products.length; i++){\n            pod[i]._prdDetails._unit +=_maxUnit;\n        }\n    } \n\n    constructor() public{\n        _owner= msg.sender;\n        defaultStockUp();\n        _vmBalance[msg.sender] = 100;\n    }\n\n    function getProduts() public view returns(Product[] memory){\n        return _products;\n    }\n\n    function purchaseItem(uint _parentIndex, uint _amount)  public{\n        Product[] storage pod = _products;\n        pod[_parentIndex]._prdDetails._unit--;\n        _vmBalance[_owner] += _amount;\n        emit Purchased(_owner,_amount);\n    }\n\n    function getVmBalance() public view returns(uint){\n        return _vmBalance[_owner];\n    }\n\n    function getProductCount() public view returns(uint) {\n        return _products.length;\n    }\n\n    function getMasterProducts() public view returns(string[] memory) {\n        return _masterProducts;\n    }\n}",
  "sourcePath": "/Users/fc19193/useCase/truffle-vending-machine/contracts/VendingMachine.sol",
  "compiler": {
    "name": "solc",
    "version": "0.5.16+commit.9c3226ce.Emscripten.clang"
  },
  "schemaVersion": "3.4.7",
  "updatedAt": "2022-06-06T20:57:11.431Z",
  "networkType": "ethereum",
  "devdoc": {
    "methods": {}
  },
  "userdoc": {
    "methods": {}
  }
}